{
  "_format": "hh-sol-artifact-1",
  "contractName": "Shop",
  "sourceName": "contracts/Shop.sol",
  "abi": [
    {
      "inputs": [],
      "stateMutability": "nonpayable",
      "type": "constructor"
    },
    {
      "inputs": [
        {
          "internalType": "string",
          "name": "pName",
          "type": "string"
        }
      ],
      "name": "addProduct",
      "outputs": [],
      "stateMutability": "nonpayable",
      "type": "function"
    },
    {
      "inputs": [],
      "name": "getProducing",
      "outputs": [
        {
          "components": [
            {
              "internalType": "uint256",
              "name": "pId",
              "type": "uint256"
            },
            {
              "internalType": "string",
              "name": "pName",
              "type": "string"
            },
            {
              "internalType": "bool",
              "name": "startedProduction",
              "type": "bool"
            },
            {
              "internalType": "bool",
              "name": "produced",
              "type": "bool"
            },
            {
              "internalType": "enum Shop.Status",
              "name": "currentStatus",
              "type": "uint8"
            },
            {
              "internalType": "enum Shop.Status[]",
              "name": "statuses",
              "type": "uint8[]"
            }
          ],
          "internalType": "struct Shop.Product[]",
          "name": "",
          "type": "tuple[]"
        }
      ],
      "stateMutability": "view",
      "type": "function"
    },
    {
      "inputs": [
        {
          "internalType": "uint256",
          "name": "pId",
          "type": "uint256"
        }
      ],
      "name": "getProducingInfo",
      "outputs": [
        {
          "components": [
            {
              "internalType": "uint256",
              "name": "pId",
              "type": "uint256"
            },
            {
              "internalType": "string",
              "name": "pName",
              "type": "string"
            },
            {
              "internalType": "bool",
              "name": "startedProduction",
              "type": "bool"
            },
            {
              "internalType": "bool",
              "name": "produced",
              "type": "bool"
            },
            {
              "internalType": "enum Shop.Status",
              "name": "currentStatus",
              "type": "uint8"
            },
            {
              "internalType": "enum Shop.Status[]",
              "name": "statuses",
              "type": "uint8[]"
            }
          ],
          "internalType": "struct Shop.Product",
          "name": "",
          "type": "tuple"
        }
      ],
      "stateMutability": "view",
      "type": "function"
    },
    {
      "inputs": [
        {
          "internalType": "uint256",
          "name": "pId",
          "type": "uint256"
        }
      ],
      "name": "getProductInfo",
      "outputs": [
        {
          "components": [
            {
              "internalType": "uint256",
              "name": "pId",
              "type": "uint256"
            },
            {
              "internalType": "string",
              "name": "pName",
              "type": "string"
            },
            {
              "internalType": "bool",
              "name": "startedProduction",
              "type": "bool"
            },
            {
              "internalType": "bool",
              "name": "produced",
              "type": "bool"
            },
            {
              "internalType": "enum Shop.Status",
              "name": "currentStatus",
              "type": "uint8"
            },
            {
              "internalType": "enum Shop.Status[]",
              "name": "statuses",
              "type": "uint8[]"
            }
          ],
          "internalType": "struct Shop.Product",
          "name": "",
          "type": "tuple"
        }
      ],
      "stateMutability": "view",
      "type": "function"
    },
    {
      "inputs": [],
      "name": "getProducts",
      "outputs": [
        {
          "components": [
            {
              "internalType": "uint256",
              "name": "pId",
              "type": "uint256"
            },
            {
              "internalType": "string",
              "name": "pName",
              "type": "string"
            },
            {
              "internalType": "bool",
              "name": "startedProduction",
              "type": "bool"
            },
            {
              "internalType": "bool",
              "name": "produced",
              "type": "bool"
            },
            {
              "internalType": "enum Shop.Status",
              "name": "currentStatus",
              "type": "uint8"
            },
            {
              "internalType": "enum Shop.Status[]",
              "name": "statuses",
              "type": "uint8[]"
            }
          ],
          "internalType": "struct Shop.Product[]",
          "name": "",
          "type": "tuple[]"
        }
      ],
      "stateMutability": "view",
      "type": "function"
    },
    {
      "inputs": [],
      "name": "initialize",
      "outputs": [],
      "stateMutability": "nonpayable",
      "type": "function"
    },
    {
      "inputs": [
        {
          "internalType": "uint256",
          "name": "",
          "type": "uint256"
        }
      ],
      "name": "producing",
      "outputs": [
        {
          "internalType": "uint256",
          "name": "pId",
          "type": "uint256"
        },
        {
          "internalType": "string",
          "name": "pName",
          "type": "string"
        },
        {
          "internalType": "bool",
          "name": "startedProduction",
          "type": "bool"
        },
        {
          "internalType": "bool",
          "name": "produced",
          "type": "bool"
        },
        {
          "internalType": "enum Shop.Status",
          "name": "currentStatus",
          "type": "uint8"
        }
      ],
      "stateMutability": "view",
      "type": "function"
    },
    {
      "inputs": [
        {
          "internalType": "uint256",
          "name": "",
          "type": "uint256"
        }
      ],
      "name": "products",
      "outputs": [
        {
          "internalType": "uint256",
          "name": "pId",
          "type": "uint256"
        },
        {
          "internalType": "string",
          "name": "pName",
          "type": "string"
        },
        {
          "internalType": "bool",
          "name": "startedProduction",
          "type": "bool"
        },
        {
          "internalType": "bool",
          "name": "produced",
          "type": "bool"
        },
        {
          "internalType": "enum Shop.Status",
          "name": "currentStatus",
          "type": "uint8"
        }
      ],
      "stateMutability": "view",
      "type": "function"
    },
    {
      "inputs": [
        {
          "internalType": "uint256",
          "name": "pId",
          "type": "uint256"
        }
      ],
      "name": "start",
      "outputs": [],
      "stateMutability": "nonpayable",
      "type": "function"
    },
    {
      "inputs": [
        {
          "internalType": "uint256",
          "name": "pId",
          "type": "uint256"
        },
        {
          "internalType": "uint256",
          "name": "status",
          "type": "uint256"
        }
      ],
      "name": "updateStatus",
      "outputs": [],
      "stateMutability": "nonpayable",
      "type": "function"
    }
  ],
  "bytecode": "0x608060405234801561001057600080fd5b5060016000819055506000600360006101000a81548160ff021916908315150217905550612073806100436000396000f3fe608060405234801561001057600080fd5b506004361061009d5760003560e01c806395805dad1161006657806395805dad14610162578063a8259d951461017e578063c29b2f20146101ae578063dfe00c51146101cc578063e2f31829146101e85761009d565b8062c89073146100a257806331148fca146100d657806379a85e6c146100f45780637acc0b20146101245780638129fc1c14610158575b600080fd5b6100bc60048036038101906100b79190611493565b610204565b6040516100cd9594939291906115f1565b60405180910390f35b6100de6102f9565b6040516100eb91906118c3565b60405180910390f35b61010e60048036038101906101099190611493565b6104f2565b60405161011b9190611975565b60405180910390f35b61013e60048036038101906101399190611493565b610729565b60405161014f9594939291906115f1565b60405180910390f35b61016061081e565b005b61017c60048036038101906101779190611493565b61088b565b005b61019860048036038101906101939190611493565b610bfe565b6040516101a59190611975565b60405180910390f35b6101b6610e35565b6040516101c391906118c3565b60405180910390f35b6101e660048036038101906101e191906119fc565b61102e565b005b61020260048036038101906101fd9190611a49565b6111b4565b005b6002818154811061021457600080fd5b906000526020600020906004020160009150905080600001549080600101805461023d90611ab8565b80601f016020809104026020016040519081016040528092919081815260200182805461026990611ab8565b80156102b65780601f1061028b576101008083540402835291602001916102b6565b820191906000526020600020905b81548152906001019060200180831161029957829003601f168201915b5050505050908060020160009054906101000a900460ff16908060020160019054906101000a900460ff16908060020160029054906101000a900460ff16905085565b60606002805480602002602001604051908101604052809291908181526020016000905b828210156104e957838290600052602060002090600402016040518060c00160405290816000820154815260200160018201805461035a90611ab8565b80601f016020809104026020016040519081016040528092919081815260200182805461038690611ab8565b80156103d35780601f106103a8576101008083540402835291602001916103d3565b820191906000526020600020905b8154815290600101906020018083116103b657829003601f168201915b505050505081526020016002820160009054906101000a900460ff161515151581526020016002820160019054906101000a900460ff161515151581526020016002820160029054906101000a900460ff1660068111156104375761043661157a565b5b60068111156104495761044861157a565b5b8152602001600382018054806020026020016040519081016040528092919081815260200182805480156104d157602002820191906000526020600020906000905b82829054906101000a900460ff1660068111156104ab576104aa61157a565b5b8152602001906001019060208260000104928301926001038202915080841161048b5790505b5050505050815250508152602001906001019061031d565b50505050905090565b6104fa61126c565b61050261126c565b60005b60018054905081101561071f57836001828154811061052757610526611ae9565b5b9060005260206000209060040201600001540361070c576001818154811061055257610551611ae9565b5b90600052602060002090600402016040518060c00160405290816000820154815260200160018201805461058590611ab8565b80601f01602080910402602001604051908101604052809291908181526020018280546105b190611ab8565b80156105fe5780601f106105d3576101008083540402835291602001916105fe565b820191906000526020600020905b8154815290600101906020018083116105e157829003601f168201915b505050505081526020016002820160009054906101000a900460ff161515151581526020016002820160019054906101000a900460ff161515151581526020016002820160029054906101000a900460ff1660068111156106625761066161157a565b5b60068111156106745761067361157a565b5b8152602001600382018054806020026020016040519081016040528092919081815260200182805480156106fc57602002820191906000526020600020906000905b82829054906101000a900460ff1660068111156106d6576106d561157a565b5b815260200190600101906020826000010492830192600103820291508084116106b65790505b505050505081525050915061071f565b808061071790611b47565b915050610505565b5080915050919050565b6001818154811061073957600080fd5b906000526020600020906004020160009150905080600001549080600101805461076290611ab8565b80601f016020809104026020016040519081016040528092919081815260200182805461078e90611ab8565b80156107db5780601f106107b0576101008083540402835291602001916107db565b820191906000526020600020905b8154815290600101906020018083116107be57829003601f168201915b5050505050908060020160009054906101000a900460ff16908060020160019054906101000a900460ff16908060020160029054906101000a900460ff16905085565b600360009054906101000a900460ff161561086e576040517f08c379a000000000000000000000000000000000000000000000000000000000815260040161086590611bdb565b60405180910390fd5b6001600360006101000a81548160ff021916908315150217905550565b60005b600180549050811015610bfa5781600182815481106108b0576108af611ae9565b5b90600052602060002090600402016000015403610be75760018082815481106108dc576108db611ae9565b5b906000526020600020906004020160020160026101000a81548160ff0219169083600681111561090f5761090e61157a565b5b021790555060026001828154811061092a57610929611ae9565b5b90600052602060002090600402019080600181540180825580915050600190039060005260206000209060040201600090919091909150600082015481600001556001820181600101908161097f9190611dec565b506002820160009054906101000a900460ff168160020160006101000a81548160ff0219169083151502179055506002820160019054906101000a900460ff168160020160016101000a81548160ff0219169083151502179055506002820160029054906101000a900460ff168160020160026101000a81548160ff02191690836006811115610a1257610a1161157a565b5b02179055506003820181600301908054610a2d9291906112b8565b5050506001808080549050610a429190611ed4565b81548110610a5357610a52611ae9565b5b906000526020600020906004020160018281548110610a7557610a74611ae9565b5b90600052602060002090600402016000820154816000015560018201816001019081610aa19190611dec565b506002820160009054906101000a900460ff168160020160006101000a81548160ff0219169083151502179055506002820160019054906101000a900460ff168160020160016101000a81548160ff0219169083151502179055506002820160029054906101000a900460ff168160020160026101000a81548160ff02191690836006811115610b3457610b3361157a565b5b02179055506003820181600301908054610b4f9291906112b8565b509050506001805480610b6557610b64611f08565b5b6001900381819060005260206000209060040201600080820160009055600182016000610b929190611318565b6002820160006101000a81549060ff02191690556002820160016101000a81549060ff02191690556002820160026101000a81549060ff0219169055600382016000610bde9190611358565b50509055610bfa565b8080610bf290611b47565b91505061088e565b5050565b610c0661126c565b610c0e61126c565b60005b600280549050811015610e2b578360028281548110610c3357610c32611ae9565b5b90600052602060002090600402016000015403610e185760028181548110610c5e57610c5d611ae9565b5b90600052602060002090600402016040518060c001604052908160008201548152602001600182018054610c9190611ab8565b80601f0160208091040260200160405190810160405280929190818152602001828054610cbd90611ab8565b8015610d0a5780601f10610cdf57610100808354040283529160200191610d0a565b820191906000526020600020905b815481529060010190602001808311610ced57829003601f168201915b505050505081526020016002820160009054906101000a900460ff161515151581526020016002820160019054906101000a900460ff161515151581526020016002820160029054906101000a900460ff166006811115610d6e57610d6d61157a565b5b6006811115610d8057610d7f61157a565b5b815260200160038201805480602002602001604051908101604052809291908181526020018280548015610e0857602002820191906000526020600020906000905b82829054906101000a900460ff166006811115610de257610de161157a565b5b81526020019060010190602082600001049283019260010382029150808411610dc25790505b5050505050815250509150610e2b565b8080610e2390611b47565b915050610c11565b5080915050919050565b60606001805480602002602001604051908101604052809291908181526020016000905b8282101561102557838290600052602060002090600402016040518060c001604052908160008201548152602001600182018054610e9690611ab8565b80601f0160208091040260200160405190810160405280929190818152602001828054610ec290611ab8565b8015610f0f5780601f10610ee457610100808354040283529160200191610f0f565b820191906000526020600020905b815481529060010190602001808311610ef257829003601f168201915b505050505081526020016002820160009054906101000a900460ff161515151581526020016002820160019054906101000a900460ff161515151581526020016002820160029054906101000a900460ff166006811115610f7357610f7261157a565b5b6006811115610f8557610f8461157a565b5b81526020016003820180548060200260200160405190810160405280929190818152602001828054801561100d57602002820191906000526020600020906000905b82829054906101000a900460ff166006811115610fe757610fe661157a565b5b81526020019060010190602082600001049283019260010382029150808411610fc75790505b50505050508152505081526020019060010190610e59565b50505050905090565b606060016040518060c00160405280600054815260200185858080601f016020809104026020016040519081016040528093929190818152602001838380828437600081840152601f19601f820116905080830192505050505050508152602001600015158152602001600015158152602001600160068111156110b5576110b461157a565b5b81526020018381525090806001815401808255809150506001900390600052602060002090600402016000909190919091506000820151816000015560208201518160010190816111069190611f37565b5060408201518160020160006101000a81548160ff02191690831515021790555060608201518160020160016101000a81548160ff02191690831515021790555060808201518160020160026101000a81548160ff021916908360068111156111725761117161157a565b5b021790555060a0820151816003019080519060200190611193929190611380565b50505060016000808282546111a89190612009565b92505081905550505050565b60005b6002805490508110156112675782600282815481106111d9576111d8611ae9565b5b90600052602060002090600402016000015403611254578160068111156112035761120261157a565b5b6002828154811061121757611216611ae9565b5b906000526020600020906004020160020160026101000a81548160ff0219169083600681111561124a5761124961157a565b5b0217905550611267565b808061125f90611b47565b9150506111b7565b505050565b6040518060c001604052806000815260200160608152602001600015158152602001600015158152602001600060068111156112ab576112aa61157a565b5b8152602001606081525090565b82805482825590600052602060002090601f0160209004810192821561130757600052602060002091601f016020900482015b828111156113065782548255916001019190600101906112eb565b5b5090506113149190611436565b5090565b50805461132490611ab8565b6000825580601f106113365750611355565b601f0160209004906000526020600020908101906113549190611436565b5b50565b50805460008255601f01602090049060005260206000209081019061137d9190611436565b50565b82805482825590600052602060002090601f016020900481019282156114255791602002820160005b838211156113f657835183826101000a81548160ff021916908360068111156113d5576113d461157a565b5b021790555092602001926001016020816000010492830192600103026113a9565b80156114235782816101000a81549060ff02191690556001016020816000010492830192600103026113f6565b505b5090506114329190611436565b5090565b5b8082111561144f576000816000905550600101611437565b5090565b600080fd5b600080fd5b6000819050919050565b6114708161145d565b811461147b57600080fd5b50565b60008135905061148d81611467565b92915050565b6000602082840312156114a9576114a8611453565b5b60006114b78482850161147e565b91505092915050565b6114c98161145d565b82525050565b600081519050919050565b600082825260208201905092915050565b60005b838110156115095780820151818401526020810190506114ee565b60008484015250505050565b6000601f19601f8301169050919050565b6000611531826114cf565b61153b81856114da565b935061154b8185602086016114eb565b61155481611515565b840191505092915050565b60008115159050919050565b6115748161155f565b82525050565b7f4e487b7100000000000000000000000000000000000000000000000000000000600052602160045260246000fd5b600781106115ba576115b961157a565b5b50565b60008190506115cb826115a9565b919050565b60006115db826115bd565b9050919050565b6115eb816115d0565b82525050565b600060a08201905061160660008301886114c0565b81810360208301526116188187611526565b9050611627604083018661156b565b611634606083018561156b565b61164160808301846115e2565b9695505050505050565b600081519050919050565b600082825260208201905092915050565b6000819050602082019050919050565b6116808161145d565b82525050565b600082825260208201905092915050565b60006116a2826114cf565b6116ac8185611686565b93506116bc8185602086016114eb565b6116c581611515565b840191505092915050565b6116d98161155f565b82525050565b6116e8816115d0565b82525050565b600081519050919050565b600082825260208201905092915050565b6000819050602082019050919050565b600061172683836116df565b60208301905092915050565b6000602082019050919050565b600061174a826116ee565b61175481856116f9565b935061175f8361170a565b8060005b83811015611790578151611777888261171a565b975061178283611732565b925050600181019050611763565b5085935050505092915050565b600060c0830160008301516117b56000860182611677565b50602083015184820360208601526117cd8282611697565b91505060408301516117e260408601826116d0565b5060608301516117f560608601826116d0565b50608083015161180860808601826116df565b5060a083015184820360a0860152611820828261173f565b9150508091505092915050565b6000611839838361179d565b905092915050565b6000602082019050919050565b60006118598261164b565b6118638185611656565b93508360208202850161187585611667565b8060005b858110156118b15784840389528151611892858261182d565b945061189d83611841565b925060208a01995050600181019050611879565b50829750879550505050505092915050565b600060208201905081810360008301526118dd818461184e565b905092915050565b600060c0830160008301516118fd6000860182611677565b50602083015184820360208601526119158282611697565b915050604083015161192a60408601826116d0565b50606083015161193d60608601826116d0565b50608083015161195060808601826116df565b5060a083015184820360a0860152611968828261173f565b9150508091505092915050565b6000602082019050818103600083015261198f81846118e5565b905092915050565b600080fd5b600080fd5b600080fd5b60008083601f8401126119bc576119bb611997565b5b8235905067ffffffffffffffff8111156119d9576119d861199c565b5b6020830191508360018202830111156119f5576119f46119a1565b5b9250929050565b60008060208385031215611a1357611a12611453565b5b600083013567ffffffffffffffff811115611a3157611a30611458565b5b611a3d858286016119a6565b92509250509250929050565b60008060408385031215611a6057611a5f611453565b5b6000611a6e8582860161147e565b9250506020611a7f8582860161147e565b9150509250929050565b7f4e487b7100000000000000000000000000000000000000000000000000000000600052602260045260246000fd5b60006002820490506001821680611ad057607f821691505b602082108103611ae357611ae2611a89565b5b50919050565b7f4e487b7100000000000000000000000000000000000000000000000000000000600052603260045260246000fd5b7f4e487b7100000000000000000000000000000000000000000000000000000000600052601160045260246000fd5b6000611b528261145d565b91507fffffffffffffffffffffffffffffffffffffffffffffffffffffffffffffffff8203611b8457611b83611b18565b5b600182019050919050565b7f416c726561647920696e697469616c697a656400000000000000000000000000600082015250565b6000611bc56013836114da565b9150611bd082611b8f565b602082019050919050565b60006020820190508181036000830152611bf481611bb8565b9050919050565b600081549050611c0a81611ab8565b9050919050565b7f4e487b7100000000000000000000000000000000000000000000000000000000600052604160045260246000fd5b60008190508160005260206000209050919050565b60006020601f8301049050919050565b600082821b905092915050565b600060088302611ca27fffffffffffffffffffffffffffffffffffffffffffffffffffffffffffffffff82611c65565b611cac8683611c65565b95508019841693508086168417925050509392505050565b6000819050919050565b6000611ce9611ce4611cdf8461145d565b611cc4565b61145d565b9050919050565b6000819050919050565b611d0383611cce565b611d17611d0f82611cf0565b848454611c72565b825550505050565b600090565b611d2c611d1f565b611d37818484611cfa565b505050565b5b81811015611d5b57611d50600082611d24565b600181019050611d3d565b5050565b601f821115611da057611d7181611c40565b611d7a84611c55565b81016020851015611d89578190505b611d9d611d9585611c55565b830182611d3c565b50505b505050565b600082821c905092915050565b6000611dc360001984600802611da5565b1980831691505092915050565b6000611ddc8383611db2565b9150826002028217905092915050565b818103611dfa575050611ed2565b611e0382611bfb565b67ffffffffffffffff811115611e1c57611e1b611c11565b5b611e268254611ab8565b611e31828285611d5f565b6000601f831160018114611e605760008415611e4e578287015490505b611e588582611dd0565b865550611ecb565b601f198416611e6e87611c40565b9650611e7986611c40565b60005b82811015611ea157848901548255600182019150600185019450602081019050611e7c565b86831015611ebe5784890154611eba601f891682611db2565b8355505b6001600288020188555050505b5050505050505b565b6000611edf8261145d565b9150611eea8361145d565b9250828203905081811115611f0257611f01611b18565b5b92915050565b7f4e487b7100000000000000000000000000000000000000000000000000000000600052603160045260246000fd5b611f40826114cf565b67ffffffffffffffff811115611f5957611f58611c11565b5b611f638254611ab8565b611f6e828285611d5f565b600060209050601f831160018114611fa15760008415611f8f578287015190505b611f998582611dd0565b865550612001565b601f198416611faf86611c40565b60005b82811015611fd757848901518255600182019150602085019450602081019050611fb2565b86831015611ff45784890151611ff0601f891682611db2565b8355505b6001600288020188555050505b505050505050565b60006120148261145d565b915061201f8361145d565b925082820190508082111561203757612036611b18565b5b9291505056fea2646970667358221220d73a5fb5fb6287142788b49855d584bf4209237423c7089678fea26d2ad9aea764736f6c63430008130033",
  "linkReferences": {},
  "deployedLinkReferences": {}
}