{
  "_format": "hh-sol-artifact-1",
  "contractName": "Tracker",
  "sourceName": "contracts/Tracker.sol",
  "abi": [
    {
      "inputs": [],
      "stateMutability": "nonpayable",
      "type": "constructor"
    },
    {
      "inputs": [
        {
          "internalType": "string",
          "name": "pName",
          "type": "string"
        }
      ],
      "name": "addProduct",
      "outputs": [],
      "stateMutability": "nonpayable",
      "type": "function"
    },
    {
      "inputs": [
        {
          "internalType": "uint256",
          "name": "orderId",
          "type": "uint256"
        },
        {
          "internalType": "uint256",
          "name": "status",
          "type": "uint256"
        },
        {
          "internalType": "string",
          "name": "orderAddress",
          "type": "string"
        }
      ],
      "name": "addStatus",
      "outputs": [],
      "stateMutability": "nonpayable",
      "type": "function"
    },
    {
      "inputs": [
        {
          "internalType": "uint256",
          "name": "productId",
          "type": "uint256"
        }
      ],
      "name": "buyProduct",
      "outputs": [],
      "stateMutability": "nonpayable",
      "type": "function"
    },
    {
      "inputs": [
        {
          "internalType": "uint256",
          "name": "orderId",
          "type": "uint256"
        }
      ],
      "name": "getMostRecentStatus",
      "outputs": [
        {
          "components": [
            {
              "internalType": "uint256",
              "name": "status",
              "type": "uint256"
            },
            {
              "internalType": "uint256",
              "name": "time",
              "type": "uint256"
            },
            {
              "internalType": "string",
              "name": "orderAddress",
              "type": "string"
            }
          ],
          "internalType": "struct Tracker.Status",
          "name": "",
          "type": "tuple"
        }
      ],
      "stateMutability": "view",
      "type": "function"
    },
    {
      "inputs": [
        {
          "internalType": "uint256",
          "name": "orderId",
          "type": "uint256"
        }
      ],
      "name": "getOrder",
      "outputs": [
        {
          "components": [
            {
              "internalType": "uint256",
              "name": "orderId",
              "type": "uint256"
            },
            {
              "internalType": "uint256",
              "name": "productId",
              "type": "uint256"
            },
            {
              "internalType": "address",
              "name": "powner",
              "type": "address"
            },
            {
              "internalType": "string",
              "name": "location",
              "type": "string"
            },
            {
              "internalType": "uint256[]",
              "name": "statusIndices",
              "type": "uint256[]"
            }
          ],
          "internalType": "struct Tracker.Order",
          "name": "",
          "type": "tuple"
        }
      ],
      "stateMutability": "view",
      "type": "function"
    },
    {
      "inputs": [],
      "name": "getOrders",
      "outputs": [
        {
          "components": [
            {
              "internalType": "uint256",
              "name": "orderId",
              "type": "uint256"
            },
            {
              "internalType": "uint256",
              "name": "productId",
              "type": "uint256"
            },
            {
              "internalType": "address",
              "name": "powner",
              "type": "address"
            },
            {
              "internalType": "string",
              "name": "location",
              "type": "string"
            },
            {
              "internalType": "uint256[]",
              "name": "statusIndices",
              "type": "uint256[]"
            }
          ],
          "internalType": "struct Tracker.Order[]",
          "name": "",
          "type": "tuple[]"
        }
      ],
      "stateMutability": "view",
      "type": "function"
    },
    {
      "inputs": [],
      "name": "getOrdersOfUser",
      "outputs": [
        {
          "components": [
            {
              "internalType": "uint256",
              "name": "orderId",
              "type": "uint256"
            },
            {
              "internalType": "uint256",
              "name": "productId",
              "type": "uint256"
            },
            {
              "internalType": "address",
              "name": "powner",
              "type": "address"
            },
            {
              "internalType": "string",
              "name": "location",
              "type": "string"
            },
            {
              "internalType": "uint256[]",
              "name": "statusIndices",
              "type": "uint256[]"
            }
          ],
          "internalType": "struct Tracker.Order[]",
          "name": "",
          "type": "tuple[]"
        }
      ],
      "stateMutability": "view",
      "type": "function"
    },
    {
      "inputs": [
        {
          "internalType": "uint256",
          "name": "productId",
          "type": "uint256"
        }
      ],
      "name": "getProduct",
      "outputs": [
        {
          "components": [
            {
              "internalType": "uint256",
              "name": "productId",
              "type": "uint256"
            },
            {
              "internalType": "string",
              "name": "productName",
              "type": "string"
            }
          ],
          "internalType": "struct Tracker.Product",
          "name": "",
          "type": "tuple"
        }
      ],
      "stateMutability": "view",
      "type": "function"
    },
    {
      "inputs": [],
      "name": "getProducts",
      "outputs": [
        {
          "components": [
            {
              "internalType": "uint256",
              "name": "productId",
              "type": "uint256"
            },
            {
              "internalType": "string",
              "name": "productName",
              "type": "string"
            }
          ],
          "internalType": "struct Tracker.Product[]",
          "name": "",
          "type": "tuple[]"
        }
      ],
      "stateMutability": "view",
      "type": "function"
    },
    {
      "inputs": [
        {
          "internalType": "uint256",
          "name": "orderId",
          "type": "uint256"
        }
      ],
      "name": "getStatuses",
      "outputs": [
        {
          "components": [
            {
              "internalType": "uint256",
              "name": "status",
              "type": "uint256"
            },
            {
              "internalType": "uint256",
              "name": "time",
              "type": "uint256"
            },
            {
              "internalType": "string",
              "name": "orderAddress",
              "type": "string"
            }
          ],
          "internalType": "struct Tracker.Status[]",
          "name": "",
          "type": "tuple[]"
        }
      ],
      "stateMutability": "view",
      "type": "function"
    },
    {
      "inputs": [],
      "name": "initialize",
      "outputs": [],
      "stateMutability": "nonpayable",
      "type": "function"
    },
    {
      "inputs": [],
      "name": "isOwner",
      "outputs": [
        {
          "internalType": "bool",
          "name": "",
          "type": "bool"
        }
      ],
      "stateMutability": "view",
      "type": "function"
    },
    {
      "inputs": [],
      "name": "owner",
      "outputs": [
        {
          "internalType": "address",
          "name": "",
          "type": "address"
        }
      ],
      "stateMutability": "view",
      "type": "function"
    }
  ],
  "bytecode": "0x608060405234801561001057600080fd5b5060008054600180805560025560ff60a01b1933166001600160a81b031990911617905561197c806100436000396000f3fe608060405234801561001057600080fd5b50600436106100cf5760003560e01c80638f32d59b1161008c578063d09ef24111610066578063d09ef241146101bd578063d1c31917146101dd578063dfe00c51146101f0578063ef3281ed1461020357600080fd5b80638f32d59b1461016a578063b9db15b414610188578063c29b2f20146101a857600080fd5b806308f041fc146100d45780632e2dc43e146100fd5780633410e6ee146101125780638129fc1c146101325780638642269e1461013c5780638da5cb5b1461014f575b600080fd5b6100e76100e236600461139b565b61020b565b6040516100f4919061142b565b60405180910390f35b61010561036a565b6040516100f49190611514565b61012561012036600461139b565b6104de565b6040516100f49190611569565b61013a6106d5565b005b61013a61014a36600461139b565b610892565b6000546040516001600160a01b0390911681526020016100f4565b6000546001600160a01b0316331460405190151581526020016100f4565b61019b61019636600461139b565b610a78565b6040516100f491906115a2565b6101b0610bc5565b6040516100f491906115b5565b6101d06101cb36600461139b565b610cb7565b6040516100f4919061160a565b61013a6101eb3660046116c0565b610e6e565b61013a6101fe366004611710565b610f87565b61010561104f565b606060025482111561025e5760405162461bcd60e51b815260206004820152601760248201527613dc99195c88125108191bd95cc81b9bdd08195e1a5cdd604a1b60448201526064015b60405180910390fd5b600082815260056020908152604080832080548251818502810185019093528083529193909284015b8282101561035f578382906000526020600020906003020160405180606001604052908160008201548152602001600182015481526020016002820180546102ce90611745565b80601f01602080910402602001604051908101604052809291908181526020018280546102fa90611745565b80156103475780601f1061031c57610100808354040283529160200191610347565b820191906000526020600020905b81548152906001019060200180831161032a57829003601f168201915b50505050508152505081526020019060010190610287565b505050509050919050565b60606003805480602002602001604051908101604052809291908181526020016000905b828210156104d55760008481526020908190206040805160a081018252600586029092018054835260018101549383019390935260028301546001600160a01b0316908201526003820180549192916060840191906103ec90611745565b80601f016020809104026020016040519081016040528092919081815260200182805461041890611745565b80156104655780601f1061043a57610100808354040283529160200191610465565b820191906000526020600020905b81548152906001019060200180831161044857829003601f168201915b50505050508152602001600482018054806020026020016040519081016040528092919081815260200182805480156104bd57602002820191906000526020600020905b8154815260200190600101908083116104a9575b5050505050815250508152602001906001019061038e565b50505050905090565b61050260405180606001604052806000815260200160008152602001606081525090565b60025482111561054e5760405162461bcd60e51b815260206004820152601760248201527613dc99195c88125108191bd95cc81b9bdd08195e1a5cdd604a1b6044820152606401610255565b600082815260056020908152604080832080548251818502810185019093528083529192909190849084015b82821015610652578382906000526020600020906003020160405180606001604052908160008201548152602001600182015481526020016002820180546105c190611745565b80601f01602080910402602001604051908101604052809291908181526020018280546105ed90611745565b801561063a5780601f1061060f5761010080835404028352916020019161063a565b820191906000526020600020905b81548152906001019060200180831161061d57829003601f168201915b5050505050815250508152602001906001019061057a565b505082519293505050806106a85760405162461bcd60e51b815260206004820152601a60248201527f4e6f20737461747573657320666f722074686973206f726465720000000000006044820152606401610255565b816106b4600183611795565b815181106106c4576106c46117ae565b602002602001015192505050919050565b600054600160a01b900460ff16156107255760405162461bcd60e51b8152602060048201526013602482015272105b1c9958591e481a5b9a5d1a585b1a5e9959606a1b6044820152606401610255565b6107516040518060400160405280600b81526020016a436c617920426f74746c6560a81b815250610f87565b61077a6040518060400160405280600881526020016710db185e48141bdd60c21b815250610f87565b6107a86040518060400160405280600d81526020016c15d9585d99590810985cdad95d609a1b815250610f87565b6107d46040518060400160405280600b81526020016a436c61792053746174756560a81b815250610f87565b6108016040518060400160405280600c81526020016b436f74746f6e20536172656560a01b815250610f87565b61083f6040518060400160405280601781526020017f53696c6b2053617265652c20547261646974696f6e616c000000000000000000815250610f87565b61087d6040518060400160405280602081526020017f436c617920506f742c207769746820696e747269636174652064657369676e73815250610f87565b6000805460ff60a01b1916600160a01b179055565b60028054600081815260056020908152604080832081516060810183528481524281850190815283518086018552868152938201938452825460018181018555938752949095208151600390950201938455935190830155519293919290918201906108fe9082611813565b50505060036040518060a00160405280838152602001848152602001336001600160a01b03168152602001604051806020016040528060008152508152602001600067ffffffffffffffff8111156109585761095861161d565b604051908082528060200260200182016040528015610981578160200160208202803683370190505b50905281546001808201845560009384526020938490208351600590930201918255928201519281019290925560408101516002830180546001600160a01b0319166001600160a01b03909216919091179055606081015190919060038201906109eb9082611813565b5060808201518051610a07916004840191602090910190611303565b5050506003600182610a199190611795565b81548110610a2957610a296117ae565b6000918252602080832084845260058083526040852054930201600401805460018082018355918552918420909101919091556002805491929091610a6f9084906118d3565b90915550505050565b60408051808201909152600081526060602082015260408051808201909152600081526060602082015260045460005b81811015610bbc578460048281548110610ac457610ac46117ae565b90600052602060002090600202016000015403610baa5760048181548110610aee57610aee6117ae565b906000526020600020906002020160405180604001604052908160008201548152602001600182018054610b2190611745565b80601f0160208091040260200160405190810160405280929190818152602001828054610b4d90611745565b8015610b9a5780601f10610b6f57610100808354040283529160200191610b9a565b820191906000526020600020905b815481529060010190602001808311610b7d57829003601f168201915b5050505050815250509250610bbc565b80610bb4816118e6565b915050610aa8565b50909392505050565b60606004805480602002602001604051908101604052809291908181526020016000905b828210156104d5578382906000526020600020906002020160405180604001604052908160008201548152602001600182018054610c2690611745565b80601f0160208091040260200160405190810160405280929190818152602001828054610c5290611745565b8015610c9f5780601f10610c7457610100808354040283529160200191610c9f565b820191906000526020600020905b815481529060010190602001808311610c8257829003601f168201915b50505050508152505081526020019060010190610be9565b610cbf61134e565b610cc761134e565b60035460005b81811015610bbc578460038281548110610ce957610ce96117ae565b90600052602060002090600502016000015403610e5c5760038181548110610d1357610d136117ae565b90600052602060002090600502016040518060a001604052908160008201548152602001600182015481526020016002820160009054906101000a90046001600160a01b03166001600160a01b03166001600160a01b03168152602001600382018054610d7f90611745565b80601f0160208091040260200160405190810160405280929190818152602001828054610dab90611745565b8015610df85780601f10610dcd57610100808354040283529160200191610df8565b820191906000526020600020905b815481529060010190602001808311610ddb57829003601f168201915b5050505050815260200160048201805480602002602001604051908101604052809291908181526020018280548015610e5057602002820191906000526020600020905b815481526020019060010190808311610e3c575b50505050508152505092505b80610e66816118e6565b915050610ccd565b6000546001600160a01b03163314610e985760405162461bcd60e51b8152600401610255906118ff565b60006003610ea7600186611795565b81548110610eb757610eb76117ae565b9060005260206000209060050201600401905060008160018380549050610ede9190611795565b81548110610eee57610eee6117ae565b9060005260206000200154905060405180606001604052808581526020014281526020018481525060056000878152602001908152602001600020600183610f369190611795565b81548110610f4657610f466117ae565b906000526020600020906003020160008201518160000155602082015181600101556040820151816002019081610f7d9190611813565b5050505050505050565b6000546001600160a01b03163314610fb15760405162461bcd60e51b8152600401610255906118ff565b6040805180820190915260018054825260208201838152600480549283018155600052825160029092027f8a35acfbc15ff81a39ae7d344fd709f28e8600b4aa8c65c6b64bfe7fe36bd19b810192835590517f8a35acfbc15ff81a39ae7d344fd709f28e8600b4aa8c65c6b64bfe7fe36bd19c909101906110329082611813565b505050600180600082825461104791906118d3565b909155505050565b6003546060906000805b828110156110c057336001600160a01b03166003828154811061107e5761107e6117ae565b60009182526020909120600260059092020101546001600160a01b0316036110ae576110ab6001836118d3565b91505b806110b8816118e6565b915050611059565b5060008167ffffffffffffffff8111156110dc576110dc61161d565b60405190808252806020026020018201604052801561111557816020015b61110261134e565b8152602001906001900390816110fa5790505b5090506000805b848110156112f957336001600160a01b031660038281548110611141576111416117ae565b60009182526020909120600260059092020101546001600160a01b0316036112e75760038181548110611176576111766117ae565b90600052602060002090600502016040518060a001604052908160008201548152602001600182015481526020016002820160009054906101000a90046001600160a01b03166001600160a01b03166001600160a01b031681526020016003820180546111e290611745565b80601f016020809104026020016040519081016040528092919081815260200182805461120e90611745565b801561125b5780601f106112305761010080835404028352916020019161125b565b820191906000526020600020905b81548152906001019060200180831161123e57829003601f168201915b50505050508152602001600482018054806020026020016040519081016040528092919081815260200182805480156112b357602002820191906000526020600020905b81548152602001906001019080831161129f575b5050505050815250508383815181106112ce576112ce6117ae565b60209081029190910101526112e46001836118d3565b91505b806112f1816118e6565b91505061111c565b5090949350505050565b82805482825590600052602060002090810192821561133e579160200282015b8281111561133e578251825591602001919060010190611323565b5061134a929150611386565b5090565b6040518060a00160405280600081526020016000815260200160006001600160a01b0316815260200160608152602001606081525090565b5b8082111561134a5760008155600101611387565b6000602082840312156113ad57600080fd5b5035919050565b6000815180845260005b818110156113da576020818501810151868301820152016113be565b506000602082860101526020601f19601f83011685010191505092915050565b8051825260208101516020830152600060408201516060604085015261142360608501826113b4565b949350505050565b6000602080830181845280855180835260408601915060408160051b870101925083870160005b8281101561148057603f1988860301845261146e8583516113fa565b94509285019290850190600101611452565b5092979650505050505050565b8051825260006020808301518185015260018060a01b036040840151166040850152606083015160a060608601526114c860a08601826113b4565b60808581015187830391880191909152805180835290840192506000918401905b8083101561150957835182529284019260019290920191908401906114e9565b509695505050505050565b6000602080830181845280855180835260408601915060408160051b870101925083870160005b8281101561148057603f1988860301845261155785835161148d565b9450928501929085019060010161153b565b60208152600061157c60208301846113fa565b9392505050565b80518252600060208201516040602085015261142360408501826113b4565b60208152600061157c6020830184611583565b6000602080830181845280855180835260408601915060408160051b870101925083870160005b8281101561148057603f198886030184526115f8858351611583565b945092850192908501906001016115dc565b60208152600061157c602083018461148d565b634e487b7160e01b600052604160045260246000fd5b600082601f83011261164457600080fd5b813567ffffffffffffffff8082111561165f5761165f61161d565b604051601f8301601f19908116603f011681019082821181831017156116875761168761161d565b816040528381528660208588010111156116a057600080fd5b836020870160208301376000602085830101528094505050505092915050565b6000806000606084860312156116d557600080fd5b8335925060208401359150604084013567ffffffffffffffff8111156116fa57600080fd5b61170686828701611633565b9150509250925092565b60006020828403121561172257600080fd5b813567ffffffffffffffff81111561173957600080fd5b61142384828501611633565b600181811c9082168061175957607f821691505b60208210810361177957634e487b7160e01b600052602260045260246000fd5b50919050565b634e487b7160e01b600052601160045260246000fd5b818103818111156117a8576117a861177f565b92915050565b634e487b7160e01b600052603260045260246000fd5b601f82111561180e57600081815260208120601f850160051c810160208610156117eb5750805b601f850160051c820191505b8181101561180a578281556001016117f7565b5050505b505050565b815167ffffffffffffffff81111561182d5761182d61161d565b6118418161183b8454611745565b846117c4565b602080601f831160018114611876576000841561185e5750858301515b600019600386901b1c1916600185901b17855561180a565b600085815260208120601f198616915b828110156118a557888601518255948401946001909101908401611886565b50858210156118c35787850151600019600388901b60f8161c191681555b5050505050600190811b01905550565b808201808211156117a8576117a861177f565b6000600182016118f8576118f861177f565b5060010190565b60208082526027908201527f46756e6374696f6e2061636365737369626c65206f6e6c7920627920746865206040820152666f776e6572212160c81b60608201526080019056fea2646970667358221220b0367b0e02c95ae455306503bbada15ec7261563ff28d555330871ab032dad2f64736f6c63430008130033",
  "linkReferences": {},
  "deployedLinkReferences": {}
}